{
  "_format": "hh-sol-artifact-1",
  "contractName": "RehabCertificate",
  "sourceName": "contracts/RehabCertificate.sol",
  "abi": [
    {
      "inputs": [],
      "stateMutability": "nonpayable",
      "type": "constructor"
    },
    {
      "anonymous": false,
      "inputs": [
        {
          "indexed": false,
          "internalType": "string",
          "name": "certificateId",
          "type": "string"
        },
        {
          "indexed": false,
          "internalType": "string",
          "name": "patientName",
          "type": "string"
        },
        {
          "indexed": false,
          "internalType": "string",
          "name": "program",
          "type": "string"
        },
        {
          "indexed": false,
          "internalType": "uint256",
          "name": "completionDate",
          "type": "uint256"
        },
        {
          "indexed": false,
          "internalType": "bytes32",
          "name": "dataHash",
          "type": "bytes32"
        }
      ],
      "name": "CertificateIssued",
      "type": "event"
    },
    {
      "inputs": [
        {
          "internalType": "string",
          "name": "_certificateId",
          "type": "string"
        },
        {
          "internalType": "string",
          "name": "_patientName",
          "type": "string"
        },
        {
          "internalType": "string",
          "name": "_program",
          "type": "string"
        },
        {
          "internalType": "uint256",
          "name": "_completionDate",
          "type": "uint256"
        },
        {
          "internalType": "bytes32",
          "name": "_dataHash",
          "type": "bytes32"
        }
      ],
      "name": "issueCertificate",
      "outputs": [],
      "stateMutability": "nonpayable",
      "type": "function"
    },
    {
      "inputs": [],
      "name": "owner",
      "outputs": [
        {
          "internalType": "address",
          "name": "",
          "type": "address"
        }
      ],
      "stateMutability": "view",
      "type": "function"
    },
    {
      "inputs": [
        {
          "internalType": "string",
          "name": "_certificateId",
          "type": "string"
        }
      ],
      "name": "verifyCertificate",
      "outputs": [
        {
          "internalType": "string",
          "name": "",
          "type": "string"
        },
        {
          "internalType": "string",
          "name": "",
          "type": "string"
        },
        {
          "internalType": "uint256",
          "name": "",
          "type": "uint256"
        },
        {
          "internalType": "bytes32",
          "name": "",
          "type": "bytes32"
        }
      ],
      "stateMutability": "view",
      "type": "function"
    }
  ],
  "bytecode": "0x608060405234801561001057600080fd5b50336000806101000a81548173ffffffffffffffffffffffffffffffffffffffff021916908373ffffffffffffffffffffffffffffffffffffffff160217905550610ec8806100606000396000f3fe608060405234801561001057600080fd5b50600436106100415760003560e01c80638b23d875146100465780638da5cb5b146100795780639926f2b014610097575b600080fd5b610060600480360381019061005b91906106e5565b6100b3565b60405161007094939291906107df565b60405180910390f35b61008161035d565b60405161008e9190610873565b60405180910390f35b6100b160048036038101906100ac91906108e6565b610381565b005b6060806000806001856040516100c991906109f1565b908152602001604051809103902060050160009054906101000a900460ff16610127576040517f08c379a000000000000000000000000000000000000000000000000000000000815260040161011e90610a54565b60405180910390fd5b600060018660405161013991906109f1565b90815260200160405180910390206040518060c001604052908160008201805461016290610aa3565b80601f016020809104026020016040519081016040528092919081815260200182805461018e90610aa3565b80156101db5780601f106101b0576101008083540402835291602001916101db565b820191906000526020600020905b8154815290600101906020018083116101be57829003601f168201915b505050505081526020016001820180546101f490610aa3565b80601f016020809104026020016040519081016040528092919081815260200182805461022090610aa3565b801561026d5780601f106102425761010080835404028352916020019161026d565b820191906000526020600020905b81548152906001019060200180831161025057829003601f168201915b5050505050815260200160028201805461028690610aa3565b80601f01602080910402602001604051908101604052809291908181526020018280546102b290610aa3565b80156102ff5780601f106102d4576101008083540402835291602001916102ff565b820191906000526020600020905b8154815290600101906020018083116102e257829003601f168201915b5050505050815260200160038201548152602001600482015481526020016005820160009054906101000a900460ff161515151581525050905080602001518160400151826060015183608001519450945094509450509193509193565b60008054906101000a900473ffffffffffffffffffffffffffffffffffffffff1681565b60008054906101000a900473ffffffffffffffffffffffffffffffffffffffff1673ffffffffffffffffffffffffffffffffffffffff163373ffffffffffffffffffffffffffffffffffffffff161461040f576040517f08c379a000000000000000000000000000000000000000000000000000000000815260040161040690610b20565b60405180910390fd5b60018560405161041f91906109f1565b908152602001604051809103902060050160009054906101000a900460ff161561047e576040517f08c379a000000000000000000000000000000000000000000000000000000000815260040161047590610b8c565b60405180910390fd5b6040518060c00160405280868152602001858152602001848152602001838152602001828152602001600115158152506001866040516104be91906109f1565b908152602001604051809103902060008201518160000190816104e19190610d58565b5060208201518160010190816104f79190610d58565b50604082015181600201908161050d9190610d58565b50606082015181600301556080820151816004015560a08201518160050160006101000a81548160ff0219169083151502179055509050507f0ea41b3a33fab45be1ab72a766182f831f39967229512312b48e7f05ca1d59e9858585858560405161057c959493929190610e2a565b60405180910390a15050505050565b6000604051905090565b600080fd5b600080fd5b600080fd5b600080fd5b6000601f19601f8301169050919050565b7f4e487b7100000000000000000000000000000000000000000000000000000000600052604160045260246000fd5b6105f2826105a9565b810181811067ffffffffffffffff82111715610611576106106105ba565b5b80604052505050565b600061062461058b565b905061063082826105e9565b919050565b600067ffffffffffffffff8211156106505761064f6105ba565b5b610659826105a9565b9050602081019050919050565b82818337600083830152505050565b600061068861068384610635565b61061a565b9050828152602081018484840111156106a4576106a36105a4565b5b6106af848285610666565b509392505050565b600082601f8301126106cc576106cb61059f565b5b81356106dc848260208601610675565b91505092915050565b6000602082840312156106fb576106fa610595565b5b600082013567ffffffffffffffff8111156107195761071861059a565b5b610725848285016106b7565b91505092915050565b600081519050919050565b600082825260208201905092915050565b60005b8381101561076857808201518184015260208101905061074d565b60008484015250505050565b600061077f8261072e565b6107898185610739565b935061079981856020860161074a565b6107a2816105a9565b840191505092915050565b6000819050919050565b6107c0816107ad565b82525050565b6000819050919050565b6107d9816107c6565b82525050565b600060808201905081810360008301526107f98187610774565b9050818103602083015261080d8186610774565b905061081c60408301856107b7565b61082960608301846107d0565b95945050505050565b600073ffffffffffffffffffffffffffffffffffffffff82169050919050565b600061085d82610832565b9050919050565b61086d81610852565b82525050565b60006020820190506108886000830184610864565b92915050565b610897816107ad565b81146108a257600080fd5b50565b6000813590506108b48161088e565b92915050565b6108c3816107c6565b81146108ce57600080fd5b50565b6000813590506108e0816108ba565b92915050565b600080600080600060a0868803121561090257610901610595565b5b600086013567ffffffffffffffff8111156109205761091f61059a565b5b61092c888289016106b7565b955050602086013567ffffffffffffffff81111561094d5761094c61059a565b5b610959888289016106b7565b945050604086013567ffffffffffffffff81111561097a5761097961059a565b5b610986888289016106b7565b9350506060610997888289016108a5565b92505060806109a8888289016108d1565b9150509295509295909350565b600081905092915050565b60006109cb8261072e565b6109d581856109b5565b93506109e581856020860161074a565b80840191505092915050565b60006109fd82846109c0565b915081905092915050565b7f4e6f7420666f756e640000000000000000000000000000000000000000000000600082015250565b6000610a3e600983610739565b9150610a4982610a08565b602082019050919050565b60006020820190508181036000830152610a6d81610a31565b9050919050565b7f4e487b7100000000000000000000000000000000000000000000000000000000600052602260045260246000fd5b60006002820490506001821680610abb57607f821691505b602082108103610ace57610acd610a74565b5b50919050565b7f4e6f7420617574686f72697a6564000000000000000000000000000000000000600082015250565b6000610b0a600e83610739565b9150610b1582610ad4565b602082019050919050565b60006020820190508181036000830152610b3981610afd565b9050919050565b7f416c726561647920657869737473000000000000000000000000000000000000600082015250565b6000610b76600e83610739565b9150610b8182610b40565b602082019050919050565b60006020820190508181036000830152610ba581610b69565b9050919050565b60008190508160005260206000209050919050565b60006020601f8301049050919050565b600082821b905092915050565b600060088302610c0e7fffffffffffffffffffffffffffffffffffffffffffffffffffffffffffffffff82610bd1565b610c188683610bd1565b95508019841693508086168417925050509392505050565b6000819050919050565b6000610c55610c50610c4b846107ad565b610c30565b6107ad565b9050919050565b6000819050919050565b610c6f83610c3a565b610c83610c7b82610c5c565b848454610bde565b825550505050565b600090565b610c98610c8b565b610ca3818484610c66565b505050565b5b81811015610cc757610cbc600082610c90565b600181019050610ca9565b5050565b601f821115610d0c57610cdd81610bac565b610ce684610bc1565b81016020851015610cf5578190505b610d09610d0185610bc1565b830182610ca8565b50505b505050565b600082821c905092915050565b6000610d2f60001984600802610d11565b1980831691505092915050565b6000610d488383610d1e565b9150826002028217905092915050565b610d618261072e565b67ffffffffffffffff811115610d7a57610d796105ba565b5b610d848254610aa3565b610d8f828285610ccb565b600060209050601f831160018114610dc25760008415610db0578287015190505b610dba8582610d3c565b865550610e22565b601f198416610dd086610bac565b60005b82811015610df857848901518255600182019150602085019450602081019050610dd3565b86831015610e155784890151610e11601f891682610d1e565b8355505b6001600288020188555050505b505050505050565b600060a0820190508181036000830152610e448188610774565b90508181036020830152610e588187610774565b90508181036040830152610e6c8186610774565b9050610e7b60608301856107b7565b610e8860808301846107d0565b969550505050505056fea26469706673582212205f763c65678421290f36c3b0547e7d9d9e0d13537a6a6ae5dcf206ed3b44ca7c64736f6c63430008140033",
  "linkReferences": {},
  "deployedLinkReferences": {}
}